:100000000C945D030C94A4030C94A4030C94A4031B
:100010000C94A4030C94A4030C94A4030C94A403C4
:100020000C94A4030C94A4030C9481170C943D1716
:100030000C944E2C0C94A4030C94A4030C94A403D1
:100040000C94A4030C94A4030C94A4030C94A40394
:100050000C94A4030C9462130C94A4030C94A403B6
:100060000C94A4030C94A4030C94A4030C94A40374
:100070000C94A4030C94A4030C94A4030C94A40364
:100080000C94A4030C94A4030C94A4030C94A40354
:100090000C94A4030C94A4030C94A4030C94A40344
:1000A0000C94A4030C94A4030C94A403050109026A
:1000B000A10185020901A100050919012905150001
:1000C00025019505750181029501750381010501E1
:1000D000093009311581257F950275088106093897
:1000E0001581257F950175088106050C0A380215D2
:1000F00081257F950175088106C0C005010980A191
:1001000001850319012AB700150126B7009501756D
:10011000108100C0050C0901A101850419012AA064
:1001200002150126A002950175108100C005010984
:1001300006A1018505050719E029E71500250195A8
:1001400008750181020507190029EF1500250195A1
:10015000F0750181020508190129059505750191C0
:1001600002950175039101C00660FF0961A10109B3
:1001700062150026FF0095207508810209631500AD
:1001800026FF00952075089102C005010906A1010E
:10019000050719E029E71500250195087501810279
:1001A0009501750881010507190029FF150026FF33
:1001B0000095067508810005081901290595057542
:1001C000019102950175039101C000010101010136
:1001D0000101010102020202020202020203030300
:1001E00003030303030404040404040405050505D0
:1001F0000506060606060707070707080808080990
:100200000909090A0A0A0B0B0B0C0C0C0D0D0D0E3B
:100210000E0E0F0F0F1010111111121213131414D0
:10022000151516161717181819191A1A1B1B1C1D45
:100230001D1E1E1F2020212222232424252626279E
:100240002829292A2B2C2D2D2E2F303132323334D0
:1002500035363738393A3B3C3D3E3F4041424344D6
:1002600045464748494A4C4D4E4F505153545556B8
:1002700058595A5B5D5E5F616264656668696B6C64
:100280006D6F7072737577787A7B7D7E80828385DF
:1002900087888A8C8E8F91939596989A9C9EA0A21F
:1002A000A3A5A7A9ABADAFB1B3B5B7BABCBEC0C229
:1002B000C4C6C9CBCDCFD1D4D6D8DBDDDFE2E4E7ED
:1002C000E9EBEEF0F3F5F8FAFDFF165C1E001F00F7
:1002D0002000210022002300240025002600270002
:1002E0002D002E002A002B0014001A000800150013
:1002F00017001C0018000C00120013002F00300023
:100300003100396104001600070009000A000B00E3
:100310000D000E000F003300340000002800E10043
:100320001D001B000600190005001100100036001A
:1003300037003872520000004C42E000E3001459CC
:10034000000000002C0000000000E60001515000F9
:10035000510000004F0013503A003B003C003D00AC
:100360003E003F0040004100420043004400450081
:100370004C00010001005200010001000100B20028
:10038000010049000100460047004800005C0100F0
:10039000500051004F000100010001000100010068
:1003A00001004A004B000000DF5C01000100010079
:1003B000010001000100145C010001004D004E002D
:1003C000A9000000A80001000100010000000000D9
:1003D00014500000000001000100AC00AA00000061
:1003E000AB0001003A003B003C003D003E003F00F6
:1003F0004000410042004300440045004C00010021
:10040000C35C0100C65CC75CC85CC95CCA5CCB5CF1
:10041000C45C010001000100005C0100010001005A
:1004200001000100010001000100CC5CCD5C010075
:1004300001000000DF5C010001000100010001007B
:1004400001000100010001000100010001000000A5
:100450000100010001000100000000000100000097
:100460000000010001000100010000000100530034
:100470005400550056005700010001000100010022
:100480005400550056005700010001005F00600055
:10049000610001000100010001005F0060006100D7
:1004A00001000100105001005C005D005E000100D1
:1004B0000100010001005C005D005E000100000021
:1004C0005800010059005A005B00010001000100C2
:1004D000010059005A005B0001000000010001000A
:1004E000620063000000000058000000000062008D
:1004F00063000100010000000100165C1E001F00E7
:1005000020002100220023002400250026002700CF
:100510002D002E002A002B0014001A0008001500E0
:1005200017001C0018000C00120013002F003000F0
:100530003100396104001600070009000A000B00B1
:100540000D000E000F003300340000002800E10011
:100550001D001B00060019000500110010003600E8
:1005600037003872520000004C42E000E200E30025
:10057000000000002C0000000000E60010505000B9
:10058000510000004F0000000000000000000000CB
:10059000000000000000000000007E0F00D4FFFFFC
:1005A000FFC70000007800000000000000002A2BB8
:1005B0002800000000000000000000000000000013
:1005C0000029000000002C1E34202122243426277C
:1005D000252E362D3738271E1F202122232425269D
:1005E0003333362E37381F0405060708090A0B0C6B
:1005F0000D0E0F101112131415161718191A1B1CB3
:100600001D2F3130232D350405060708090A0B0C70
:100610000D0E0F101112131415161718191A1B1C92
:100620001D2F3130354C09025B00030100A0FA098F
:100630000400000103010100092111010001224011
:10064000000705810308000A0904010002030000F5
:100650000009211101000122220007058203200068
:100660000107050303200001090402000103000043
:100670000009211101000122BC00070584032000AC
:100680000A12011001000000085A44211102000161
:10069000020001100344005A0036003000520047A7
:1006A00000420000000E0344005A0054004500437D
:1006B0000048000000040309040011241FBECFEF0E
:1006C000DAE0DEBFCDBF04B603FE27C08091E206AC
:1006D0009091E306A091E406B091E5068730904B37
:1006E000A740B04BD1F41092E2061092E3061092AC
:1006F000E4061092E50614BE84B7877F84BF0FB668
:10070000F894A895809160008861809360001092B1
:1007100060000FBEE0E0F8E3099526E0A2E7B3E051
:1007200001C01D92A23EB207E1F713E0A0E0B1E0E4
:10073000E2ECFDE502C005900D92A237B107D9F7B2
:100740000E94B6270C947C2E0C940000E8EDF0E09B
:1007500080818E7F80831092E2001092DA001092E6
:10076000E100A0EEB0E08C9181608C9380818F7766
:10077000808319BCA7EDB0E08C918E7F8C93808133
:100780008F7E80831092B40408952091E40030910C
:10079000E50095E6A9012091EC00822F817020FFF1
:1007A00006C08091E80080FF06C080E00895209197
:1007B000E80022FD1AC08091E304882389F0853087
:1007C00089F08091EB0085FD0FC02091E40030910D
:1007D000E50042175307F9F29150E1F684E00895DD
:1007E00082E0089583E0089581E00895EF92FF92FA
:1007F0000F931F93CF937C018B010E94C503C82FD9
:10080000811117C08091E80085FD0BC08091E80040
:100810008E778093E8000E94C503882399F3C82F40
:1008200008C0F70181917F018093F1000150110907
:1008300049F78C2FCF911F910F91FF90EF90089562
:10084000CF93FC018091E304843001F5C091E9006D
:10085000CF702091EC00922F917020FD90E8C92B71
:1008600082E08093E9008091E80080FF0CC050E0B6
:1008700040E060E270E0CF010E94F6038091E80062
:100880008E778093E800CF70C093E900CF910895F0
:100890008091DB0487FF13C08091E80082FF06C0CF
:1008A0008091E8008B778093E80004C08091E30496
:1008B0008111F2CF08958091E3048823D9F38091C8
:1008C000E80080FFF8CF8091E8008E77ECCF982F7A
:1008D0009093E900242F762F50E0891731F0709122
:1008E000EC002091ED005091F00021FD07C09F5FCA
:1008F000973071F78093E90081E008953091EB0023
:100900003E7F3093EB003091ED003D7F3093ED0062
:100910003091EB0031603093EB007093EC0020934A
:10092000ED005093F0002091EE0027FDE0CF80E035
:100930000895CF92DF92EF92FF920F931F93CF9380
:10094000DF93C8EDD0E088818F7E8883E7EDF0E00B
:1009500080818160808384E082BF81E08093B404E1
:1009600088818E7F888302EE10E0F8011082109259
:10097000DA0081EEC82ED12CF601108288818F77A3
:10098000888388818068888388818F7D888319BC6B
:100990001092E3041092DA041092D9041092D80451
:1009A00090EEE92EF12CF70180818B7F8083888186
:1009B0008160888342E060E080E00E946704F60185
:1009C00080818E7F8083F801808181608083808137
:1009D00088608083F70180818E7F80838881806139
:1009E0008883DF91CF911F910F91FF90EF90DF905F
:1009F000CF900895FC018091E1049091E204861764
:100A00009707A0F06115710529F49091E8009E7791
:100A10009093E80090E06115710551F4911108C0C0
:100A20008091E80082FF34C080E00895BC01F2CFDD
:100A30008091E3048823C1F18530C1F18091E80001
:100A400083FD30C08091E80082FDEACF8091E8000C
:100A500080FFE1CF8091F3002091F200382F6115E3
:100A6000710519F02830310558F091E02830310532
:100A700009F090E02091E8002E772093E800CBCF9A
:100A800081918093F100615071092F5F3F4FE7CF53
:100A90008091E304882341F0853041F08091E800A3
:100AA00083FFBECF81E0089582E0089583E008953A
:100AB0008091B704089590919604803F59F48091F5
:100AC000970487FF0DC01092970491110BC01092EC
:100AD000910408C0813F81F48091970418169CF31B
:100AE000992381F08091980490919904892B09F0C1
:100AF00064C010928E040895823F49F497FFF0CFAE
:100B000010929604809197048111ECCFE0CF833F3F
:100B100019F41916ACF3E4CF20919804893F29F415
:100B20001216F4F610929804DBCF8A3F19F427FFCF
:100B3000D7CFF8CF209199048B3F29F427FFD0CF4E
:100B400010929904CDCF8C3F19F41216CCF3C8CF74
:100B5000843F31F4809195048E7F80939504C0CFBB
:100B6000853F21F4809195048D7FF7CF863F21F456
:100B7000809195048B7FF1CF873F21F4809195047C
:100B8000877FEBCF883F21F4809195048F7EE5CF5E
:100B90008D3F31F4809155048E7F80935504A0CF12
:100BA0008E3F21F4809155048D7FF7CF8F3F09F060
:100BB00097CF809155048B7FF0CF08958091550495
:100BC00080FD16C081FD16C082FD16C080918E0486
:100BD0008823A1F0883280F428E0829FC00111248C
:100BE00068E270E00E94412D862F672B39F008954E
:100BF00082E0089584E0089588E0089581E00895F2
:100C00008091550480FD14C081FD14C082FD16C082
:100C100080919104882381F0843180F422E3829FC3
:100C2000C001112464E170E00E94412D862F0895D7
:100C30008CE0089589E1089585E0089582E30895A0
:100C4000803F31F40E9400068195809397040895B7
:100C5000813F19F40E940006F8CF823F31F40E94D0
:100C600000068195809396040895833F19F40E94AD
:100C70000006F8CF893F29F40E94DE05809398048E
:100C800008958A3F21F40E94DE058195F7CF8B3FBE
:100C900031F40E94DE0581958093990408958C3F7C
:100CA00019F40E94DE05F8CF843F31F48091950459
:100CB0008160809395040895853F21F48091950487
:100CC0008260F7CF863F21F4809195048460F1CF54
:100CD000873F21F4809195048860EBCF883F21F411
:100CE000809195048061E5CF8D3F31F4809155046A
:100CF00081608093550408958E3F21F480915504BE
:100D00008260F7CF8F3FB9F7809155048460F1CFAF
:100D10009C014FB7F8948091B0049091B104A091D8
:100D2000B204B091B3044FBF821B930B089520917E
:100D300010012223C9F02091890427FF15C0E62F56
:100D4000E695E695E695EE31D8F4E80FF92FF11D1A
:100D5000677021E030E001C0220F6A95EAF7209524
:100D60008281282322830895FC01329608962191DE
:100D7000621303C0DF0111971C92E817F907B9F756
:100D80000895209110012223C1F02091890427FFAA
:100D900014C0E62FE695E695E695EE31F8F4E80FF7
:100DA000F92FF11D677021E030E001C0220F6A9534
:100DB000EAF78281822B82830895FC0132962FEF1D
:100DC00030E04191641751F02F3F19F4411101C0F7
:100DD000232F3F5F3630A9F72F3F09F40895820F84
:100DE000911D27FD9A95FC0162830895809150041E
:100DF000811110925004089580914F0490914E04F7
:100E0000892B90914D04892B80937203909150040B
:100E10009923A1F0892B809372038091100188237C
:100E200041F18091890487FF24C08EE1E4E7F3E07B
:100E300090E0815000F591110E94F606E0918B043C
:100E4000F0918C043097E1F080911001882359F0E3
:100E50008091890487FF07C0809172038093730398
:100E600085E0809372030280F381E02D82E793E0B6
:100E7000099486E0DBCF21912223D9F29F5FD9CF5D
:100E800008952EE0929F800D1124982F97708695DB
:100E90008695869525E0829FF0011124E15EFB4F47
:100EA00050E040E080E0219130E0092E02C036950C
:100EB00027950A94E2F721703327042E01C0220FF0
:100EC0000A94EAF7822B4F5F5F4F4530510559F77F
:100ED00008952EE0929F800D1124982F977041E085
:100EE00001C0440F9A95EAF786958695869595E018
:100EF000899FF0011124E15EFB4F90E080E070E0FB
:100F00005191DF0111979B01082E02C0369527955C
:100F10000A94E2F7217021952527242325272C9375
:100F200001968530910561F7089580911E04909196
:100F3000ED03981301C008958F5F8770FACF88235F
:100F400041F0809590914F04892380934F040C9435
:100F5000FC060895882339F090914F04982B9093C4
:100F60004F040C94FC06089520919D0330919E033C
:100F70002817390771F090939E0380939D03E091A9
:100F80008B04F0918C04309721F00084F185E02DE2
:100F90000994089520919B0330919C0328173907E9
:100FA00071F090939C0380939B03E0918B04F091EC
:100FB0008C04309721F00680F781E02D0994089584
:100FC000E0918B04F0918C04309721F00190F08136
:100FD000E02D099480E00895FA01811101C0FB0120
:100FE0000994CF93DF938F33910520F5880F991FD4
:100FF000880F991FFC01E05EFE4FA2813381808142
:101000008370C181E82FF0E050EC859FC00111246E
:101010008A5E9A4FC80FD92FD11D6883A80FB92FA8
:10102000B11D4C93830F911DDC012C93EA56F94FAF
:1010300081E08083DF91CF910895FF920F931F93FA
:10104000CF93DF93182F062FF42ED0E0C0E02F2D82
:10105000402F612FCE010E94F1072196CF33D10599
:10106000B1F7DF91CF911F910F91FF9008950C94EC
:101070001D080C94F10722E8241B08F420E0620FFD
:1010800008954095282F429F412D1124842F0895C3
:101090000F931F9310E0F801EE0FFF1FEB54FD4F6D
:1010A0009081905797FD9195000F111FF801EA5418
:1010B000FD4F00810052110B2003F001219FF00D24
:1010C000112408E310E0091B110997FD1395400353
:1010D0009001419F300D1124E20FF31F9F01220F59
:1010E000331F2E0F3F1F37FF02C021583F4F220FE3
:1010F000232F221F330B620F1F910F9108950F931F
:101100001F93522F10E0F801EE0FFF1FEA54FD4F1E
:10111000A081A052BB0B9D015203F001539FF00D23
:101120001124000F111FD801AB54BD4F0C91005773
:10113000110B40039001419F300D11242E0F3F1FD2
:1011400037FF02C0215C3F4F96E0359527959A9571
:10115000E1F7620F1F910F9108950F931F93522F84
:1011600010E0F801EE0FFF1FEA54FD4FA081A052DE
:10117000BB0B9D015203F001539FF00D1124000F92
:10118000111FD801AB54BD4F0C910057110B4003F8
:101190009001419F300D11242E0F3F1F37FF02C0D9
:1011A00021583F4F220F232F221F330B620F1F9115
:1011B0000F910895EF920F93972F23E0029FB001B4
:1011C0001124759567956E0D792F0F91EF90089505
:1011D000322F50E0FA01EE0FFF1FEA54FD4F9081CD
:1011E000905297FD9195440F551FFA01EB54FD4F16
:1011F0002081231B330B290F311D97FD3A95620F78
:101200000895E42FF0E0EE0FFF1FEA54FD4F6081D8
:10121000621B0895E42FF0E0EE0FFF1FEB54FD4F2B
:101220006081621B0895622F0895E42FF0E0EE0FB5
:10123000FF1FEB54FD4F408134EE439F412D11249D
:10124000E82FF0E050E0445E5F4FDA01A21BB109E5
:101250009D01B7FF03C031952195310993E0220F1D
:10126000331F9A95E1F7AF01421B530B9A0157FDCB
:1012700020E0582F259F212D1124822F0895FC0155
:101280009B01009729F480E077FF2BC080E8089548
:10129000AC0197FF04C044275527481B590BB901DF
:1012A000640F751F37FD10C0241B350BC901A5E065
:1012B000880F991FAA95E1F70E94412D80E2861BB5
:1012C000F7FF0FC081950895CB0165E0880F991F46
:1012D0006A95E1F7BA01621B730B0E94412D80E60B
:1012E000EECF0895EF920F93CF93DF93D72FC82FB0
:1012F000C9010E19BA010E943F09602F681B7D2F9A
:101300008C2FDF91CF910F91EF9008950F93CF9392
:10131000DF93D72FC82FC901BA010E943F09682F58
:10132000600F7D2F8C2FDF91CF910F910895EF9259
:101330000F931F93CF93DF93D62FC72F182FC90179
:101340000E19010FBA010E943F09081B202F219F8F
:10135000212D1124822F6D2F7C2FDF91CF911F9192
:101360000F91EF9008950F931F93CF93DF93D62F94
:10137000C72F182FC901212F201B022FBA010E944D
:101380003F09982F990F990F891B800F282F219FB4
:10139000212D1124822F6D2F7C2FDF91CF911F9152
:1013A0000F910895E82F86FDE0952E2F2F7086FD72
:1013B0002F5FE695E695E695E670F0E0E85EFE4F75
:1013C0009181929F902D212D112492959F702295AD
:1013D000207F922B2081920F87FD919580E8890FC5
:1013E0000895AC018230910508F408959FEF413EC5
:1013F0008EE1580740F49A0195E0369527959A9525
:10140000E1F798E0920F61E0E62FE90FFF27FF1F59
:101410009F0135952795822F229FF001239FF00D84
:10142000F00D11244E175F0738F49FEF920F9617B7
:1014300058F78FEF860F08952F3FE9F361E0620FB1
:10144000F6CF0F93CF93DF93D72FC82F47FD41954A
:1014500088E390E0841B910947FD9395889FB00134
:10146000899F700D700D1124229FC001239F900D44
:10147000900D1124860F971F0E94F109982F990F44
:10148000890F682F600F7D2F8C2FDF91CF910F91E7
:10149000089530E020E0869F212D969F200D311D7C
:1014A0001124C9010895AF92BF92CF92DF92FF92AB
:1014B0000F931F93CF93DF93362F472FE82FF0E042
:1014C000E653FE4F71110FC0E4918E2F2E2F6E2F19
:1014D000722FDF91CF911F910F91FF90DF90CF90EE
:1014E000BF90AF900895C72FD0E02491F22E022F25
:1014F00010E056E0659FC0011124EFEFF0E0BF015E
:101500000E942D2D832F90E0880F991F35E5369F7F
:10151000D001379FB00D11248A1B9B0B982F990F78
:10152000980F6F01CC1ADD0AC09ED001C19EB00D8C
:10153000D09EB00D11248B2F499FA0011124452F5F
:1015400055276F01C41AD50AC09EA001C19E500D37
:10155000D09E500D11245F01A91AB108AC9E600104
:10156000AD9ED00CBC9ED00C1124CD2CDD24EC19EA
:10157000FD09E09FE001E19FD00DF09FD00D112407
:10158000ED2F62307105A1F050F46115710509F479
:101590009ECF6130710581F0EB2F852F98CF64309D
:1015A000710569F080F06630710509F490CFF4CFD1
:1015B000E22F2B2F8D2F8BCFE22F252F88CFEB2FD4
:1015C000822F2D2F84CF2B2F8F2DE52F80CFCF92E1
:1015D000DF92EF92FF920F931F93CF93DF937C01E3
:1015E000C09112018DE0C89FC02D11242DE0D22E94
:1015F000DC0ECD2C8FE38D1510F49FE3C92E2091C6
:10160000DD0630E050E040E06FEF7FEF80E090E0FB
:101610000E94192E8901D0E02C2FCC1570F081E0AA
:10162000FEE3FD1508F480E0DF91CF911F910F914B
:10163000FF90EF90DF90CF900895FE01ED5CFC4F9E
:101640008081909113018923F1F04091B0064150BF
:10165000042E000C550B47FF18C0C8016091DD0631
:101660000E94490AAC016091DA067091DB06809114
:10167000DC06F70109950E94530A462F282F672F91
:10168000CE010E9439082196C7CFFA01E055F94FE3
:10169000818982130AC0FA01EE0FFF1FE055F94F4E
:1016A000818D928D80179107C8F241505109D3CF97
:1016B0009F92AF92BF92CF92DF92EF92FF920F93E1
:1016C0001F93CF93DF936C01C09112018DE0C89FEF
:1016D000C02D11241DE01C0FB12E103410F03FE37B
:1016E000B32E6091DD06669566958091AC0690916B
:1016F000AD060E94490AF82E80E48F0D0E94D2099F
:1017000090E8A92EA80E8F2D0E94D20920E8922ED3
:10171000980ED0E0CB1580F081E01F3308F080E018
:10172000DF91CF911F910F91FF90EF90DF90CF90BD
:10173000BF90AF909F900895FE01ED5CFC4F8081BB
:10174000909113018923A1F06091DA067091DB0674
:101750008091DC06EF2C0C2F292D4A2DF6010995DE
:101760000E94530A462F282F672FCE010E94390866
:101770002196D0CF7F928F929F92AF92BF92CF92BD
:10178000DF92EF92FF920F931F93CF93DF935C0151
:10179000C09112018DE0C89FC02D11241DE01C0FC7
:1017A000F12E103410F03FE3F32E6091DD066695C4
:1017B0008091AC069091AD060E94490A782ED0E047
:1017C000CF1590F081E01F3308F080E0DF91CF91DA
:1017D0001F910F91FF90EF90DF90CF90BF90AF904F
:1017E0009F908F907F900895FE01ED5CFC4F80816B
:1017F000909113018923C9F1CE01880F991F815956
:101800009D4FFC01EA5BFF4F2081422F4057550B53
:101810006A01895B9F4FFC018081282F2052330B86
:101820004901449F9001459F300D300D1124889C43
:10183000C001899C900D900D1124820F931F0E946E
:10184000F109082F6091DA067091DB068091DC06C1
:10185000E72C9401A601F50109950E94530A462F31
:10186000282F672FCE010E9439082196A9CFCF9249
:10187000DF92EF92FF920F931F93CF93DF937C0140
:10188000C09112018DE0C89FC02D11241DE01C0FD6
:10189000D12E103410F03FE3D32E6091DD06669513
:1018A0008091AC069091AD060E94490AC82ED0E006
:1018B000CD1568F081E01F3308F080E0DF91CF9113
:1018C0001F910F91FF90EF90DF90CF900895FE0150
:1018D000ED5CFC4F808190911301892311F1CE01C1
:1018E000880F991F81599D4FFC01E95BFF4F2081B3
:1018F0002052330B8A5B9F4FFC0140814057550BB0
:101900006091DA067091DB068091DC060C2DF70100
:1019100009950E94530A462F282F672FCE010E9457
:1019200039082196C5CFDF92EF92FF920F931F9354
:10193000CF93DF937C01C09112018DE0C89FC02D31
:1019400011241DE01C0F012F103408F00FE36091EB
:10195000DD06669566958091AC069091AD060E9475
:10196000490AD82ED0E0C01760F081E01F3308F09C
:1019700080E0DF91CF911F910F91FF90EF90DF906A
:101980000895FE01ED5CFC4F808190911301892345
:1019900091F06091DA067091DB068091DC062D2DC6
:1019A0004C2FF70109950E94530A462F282F672FC5
:1019B000CE010E9439082196D6CFF894E82FE295FF
:1019C000EF70F0E031A1282F2F7081E090E001C08E
:1019D000880F2A95EAF7982F9095932391A392A1C7
:1019E000892B82A3789408959091890492FF06C070
:1019F000282F28712830F9F4877F846093FF06C070
:101A0000282F28712831F1F4877E846120918A047F
:101A100020FF06C0382F38713830D9F4877F8160B5
:101A200021FF06C0282F28712831D1F4877E8161DB
:101A300094FD877E0895282F24712430F9F68B7F3A
:101A40008860DCCF282F2471243101F78B7E8861D8
:101A5000DDCF382F3171313019F78E7F8860E0CFBC
:101A6000282F2171213121F78E7E8861E1CF80936B
:101A700098066093990624E630E042E050E068E979
:101A800076E080EA0E94062D21E0892B09F020E013
:101A9000822F0895FF920F931F93CF93DF93C82F48
:101AA000082F10E00C5E1A4FF80180818823B9F0EE
:101AB00065EC8EEF0E94370D60E08DEF0E94370DD0
:101AC000F8E1CF9FE0011124CC51DB4FF12C69915B
:101AD0008F2D0E94370DF39488E1F812F8CFF801AA
:101AE0001082DF91CF911F910F91FF900895CF92B7
:101AF000DF92EF92FF920F931F93CF93DF93C82F44
:101B0000C82ED12CC6018A56994F7C01FC018081D8
:101B1000882369F165EC8EEF0E94370D61E08DEF4F
:101B20000E94370DF0ECCF9FE0011124CA5EDA4F1E
:101B300010E000E000939806DE01A00FB11FE9E974
:101B4000F6E08D91819386E0E93AF807D1F724E633
:101B500030E041E150E068E976E080EA0E94062D3D
:101B6000892B81F4005F1F4F003C110519F7F70125
:101B70001082DF91CF911F910F91FF90EF90DF9036
:101B8000CF900895F601EC5EFA4F81E08083EFCFAD
:101B900080E00E94770D81E00C94770DCF93DF9366
:101BA00000D00F92CDB7DEB79091E304943011F5D9
:101BB00089837B836A839093E9008FEF9091E8009B
:101BC000815095FD06C095ED9A95F1F700008111C1
:101BD000F5CF8091E80085FF0DC050E040E063E064
:101BE00070E0CE0101960E94F6038091E8008E77A6
:101BF0008093E8000F900F900F90DF91CF910895A0
:101C0000BC0184E00C94CE0DBC0183E00C94CE0D9D
:101C10009C0184E08093E9009FEF8091E80091505F
:101C200085FD06C085ED8A95F1F700009111F5CF8D
:101C30008091E80085FF0CC050E040E066E070E075
:101C4000C9010E94F6038091E8008E778093E80036
:101C50000895CF93DF93EC01809110018823B1F1B7
:101C60008091890487FF32C060E284E08093E900BC
:101C70008FEF9091E800815095FD06C095ED9A9503
:101C8000F1F700008111F5CF8091E80085FF1BC0BE
:101C90008091100170E050E040E0811104C050E0FC
:101CA00040E068E070E0CE010E94F6038091E80019
:101CB0008E778093E80080E2FE01A8EBB4E001900B
:101CC0000D928A95E1F7DF91CF91089568E081E068
:101CD000CDCF81E08093E00080E28093D800109225
:101CE000C9008FE19EE40197F1F700C0000087E092
:101CF00090EBDC018093E2069093E306A093E40668
:101D0000B093E50688E19CE00FB6F894A89580931F
:101D100060000FBE90936000FFCFCF9384E090E00F
:101D20000E94D72DC82F81E290E00E94D72D982FD6
:101D30008C2FCF9108950F931F93CF93DF93C42FD0
:101D4000D0E0CC0FDD1F2CE1629FC00DD11D11240E
:101D50003CE8839FC00DD11D1124CE0186960E94C0
:101D6000D72D082F10E0102F0027CE0187960E9454
:101D7000D72D9801282BC901DF91CF911F910F9189
:101D80000895462F843038F4753028F46E3018F4F6
:101D9000672F0C949B0E90E080E00895CF93DF9323
:101DA0000E94C10EEC0182389105A9F1D8F581336A
:101DB000910509F496C048F58932910509F48AC065
:101DC0008A9709F495C0C11521E5D20708F0BCC077
:101DD000C11530E5D30708F014C1C83ED10508F09D
:101DE0009CC0C03ED10560F5C83AD10508F087C057
:101DF000C53AD10508F0FDC0C130D10509F12097E1
:101E0000F9F0C430D105E0F440C08533910509F400
:101E10005AC0C997C1F680918904837089F0C0EED9
:101E2000D0E00EC0833E910599F170F4803E91059B
:101E300001F1823E910539F68091890482FD21C02D
:101E4000CE01DF91CF910895863E910561F1873EE5
:101E5000910571F1843E910509F0B5CF80918A0416
:101E600081FFEECF80918904C7EED0E084FD0DC0E4
:101E7000E7CF8091890480FD12C190918A0490FF80
:101E8000DFCFC3EED0E084FFDBCFD0E0C0E0D8CF1F
:101E90008091890482FD06C190918A0490FDBFCF94
:101EA00084FFCECFF2CF8091890483FDDDCFC8CFF0
:101EB0008091890483FDF9C090918A0491FFF0CF4D
:101EC000C4EED0E0BDCF8091890485FFB9CFC9E2CF
:101ED000D0E0B6CF8091890485FFB2CFC5E3D0E0D2
:101EE000AFCF8091890486FFABCFCAE2D0E0A8CF04
:101EF0008091890486FFA4CFC1E3D0E0A1CFCF3B7E
:101F0000D10518F6C85AD0E0CC0FDD1FC15EDD4FF9
:101F10000990D881C02DD46493CFC11540E2D40775
:101F200058F4C11581E0D80708F08ACFC03FD10529
:101F300008F4ABCFD06584CFC11590E4D90708F47D
:101F4000A4CFDF70D06A7CCFC11525E5D20700F59C
:101F5000C11534E5D30708F08AC0C11543E5D4079D
:101F600008F071C0C11582E5D80708F467C0CE013A
:101F70008370992721E030E002C0220F331F8A9539
:101F8000E2F7C695C69580E2C89FE001112452C0D1
:101F9000C11599E5D907A8F4C11528E5D20708F0BD
:101FA0006BC0C11536E5D30708F06FCF8C2F0E94A8
:101FB000F40CC82FD0E0DC2FCC27CC27DF71D06207
:101FC0003FCFC1154AE5D40708F45BC0CE01905657
:101FD0008115904208F059CF8D2F8F710E94F40C1B
:101FE00090E0982F882788279F719C012C2BE9016E
:101FF000E6CFC55AD0E0C45EDD4FC881D0E0D064E2
:102000001FCFCE01E4E096958795EA95E1F78370BE
:102010002C2F26952695237040E2249F90011124B1
:10202000382B8C2F8370C1E0D0E002C0CC0FDD1FB5
:102030008A95E2F7C22BD32BDC6802CFDC2FCC27AA
:10204000C16FD06AFDCECE018370992721E030E0C8
:1020500002C0220F331F8A95E2F7C695C69590E21B
:10206000C99FE0011124C22BD32BDA68E9CEDC2F03
:10207000CC27C46FD06AE4CEDC2FCC27C06FD06AE7
:10208000DFCE8C2F8F700E94F40C34E0D695C7956C
:102090003A95E1F7CF709C2FEC01D069D1CEC9E31E
:1020A000D0E0CECEC2EED0E0CBCEC6EED0E0C8CEF1
:1020B000BF92CF92DF92EF92FF920F931F93CF9335
:1020C000DF938C01C090DE06D090DF06E090E00642
:1020D000F090E1068091510490915204A091530434
:1020E000B0915404C82AD92AEA2AFB2ACFE1D0E0C9
:1020F000BC2ED701C6010C2E04C0B695A7959795A6
:1021000087950A94D2F780FD0EC0219788F7B12CED
:102110008B2DDF91CF911F910F91FF90EF90DF906A
:10212000CF90BF900895B8018C2F0E94CE0E0197DA
:1021300061F3EECFCF93DF93EC010E945810BE0104
:10214000DF91CF910C94CE0E0E949A10292F2F7000
:1021500092959F7092509E3078F4E92FF0E0E2580B
:10216000F14D0C94552D803F19F020F4883E20F459
:1021700081E00895843FE1F380E00895883EC0F354
:10218000813FD1F7F5CF822F869586958695089564
:102190006F927F928F929F92AF92BF92CF92DF9277
:1021A000EF92FF920F931F93CF93DF938AECC82E89
:1021B00082E0D82E9EECE92EF12CE701CC58D10913
:1021C00036011BC0F50185909490692DC8010E94CD
:1021D000F52D682DC80101960E94F52D82E0A80E0C
:1021E000B11C0E5F1F4FC017D10761F78CE1680E5D
:1021F000711C6C96CE15DF0529F08E010C5111096A
:102200005301E0CF7E018CE8E80EF11C8CE8C80E8B
:10221000D11C8EEFE81682E0F80679F6DF91CF91B7
:102220001F910F91FF90EF90DF90CF90BF90AF90F4
:102230009F908F907F906F900895CF93DF93C6E526
:10224000D2E060E0CE010E94F52D2196C11584E018
:10225000D807B9F7DF91CF910895CF93C82F6FEFCB
:10226000811161E282E290E00E94F52D6FEFC111D1
:1022700063E083E290E00E94F52D6FEFC11162E20E
:1022800084E290E0CF910C94F52D6CEE7EEF90E01F
:1022900080E00E94132E60E082E090E00E94F52D25
:1022A00060E083E090E00E94F52D109251041092BE
:1022B0005204109253041092540460E084E090E0C1
:1022C0000E94F52D60E081E290E00E94F52D60E033
:1022D00085E090E00E94F52D60E086E090E00E94AD
:1022E000F52D6FEF87E090E00E94F52D40E050E083
:1022F000BA0188E090E00E94072E60E08DE090E057
:102300000E94F52D40E050E0BA0188E190E00E9483
:10231000072E60E087E190E00E94F52D40E050E05C
:10232000BA018CE190E00E94072E60E080E290E02C
:102330000E94F52D40E050E0BA0188E190E00E9453
:10234000072E40E050E0BA018FE090E00E94072E97
:1023500040E050E0BA0183E190E00C94072ECF9268
:10236000DF92FF920F931F93CF93DF930E94752C00
:1023700065EC8EEF0E94370D60E08DEF0E94370D07
:10238000C0E060E08C2F0E94370DCF5FC831C9F7E5
:1023900065EC8EEF0E94370D61E08DEF0E94370DE6
:1023A000C0E060E08C2F0E94370DCF5FC03CC9F7C2
:1023B00065EC8EEF0E94370D63E08DEF0E94370DC4
:1023C0006FEF81E00E94370D61E080E00E94370DE1
:1023D0008FE39CE90197F1F700C00000E0E2F1E033
:1023E00050E040E098E1F92EC1E0D0E001E0118139
:1023F00072816381DA01AA0FBB1FAA0FBB1FA05E07
:10240000BE4F8C91837090E0A12FA695A695A695BE
:10241000F89E9001F99E300D11242C513B4FA20FD4
:10242000B32FB11D17706E0101C0CC0C1A95EAF7DD
:102430001C911C291C93A72FA695A695A695A20FC3
:10244000B32FB11D77706E0101C0CC0C7A95EAF7FD
:102450007C917C297C93A62FA695A695A695A20F84
:10246000B32FB11D67709E0102C0220F331F6A9502
:10247000E2F7B9012C91262B2C938C5E9A4FDC014C
:102480000C934F5F5F4F34964F33510509F0AFCF38
:1024900080E00E944A0D81E0DF91CF911F910F9162
:1024A000FF90DF90CF900C944A0D1F93CF93DF9352
:1024B000EC01FC01ED5CFC4F80816823A1F00E94DF
:1024C000AE2D182F0E94AE2D612F782F8091DC0643
:1024D0000E94530A462F282F672FCE01DF91CF91FC
:1024E0001F910C943908DF91CF911F910895DF92CD
:1024F000EF92FF920F931F93CF93DF938C01FC0118
:10250000ED5CFC4F8081682381F1D090DB06D09197
:10251000DC06C091DA06EC2EF12C0E94AE2D282F9D
:10252000C7018C549F4F68E671E00E94412D8E19BF
:102530009F0997FD039695958795959587952370A7
:102540006C2F289F600D11247D2D8D2F0E94530A22
:10255000462F282F672FC801DF91CF911F910F9130
:10256000FF90EF90DF900C943908DF91CF911F918D
:102570000F91FF90EF90DF90089545E050E06CE1FF
:1025800070E089ED96E00C94E52D9091D90693705A
:1025900089F0811107C094609093D90610921101BF
:1025A0000C94BD12883110F09C65F6CF880F880F0F
:1025B000982BF2CF08958091D90686958695815003
:1025C00009F487E10C94C5128091D9068695869509
:1025D0008F5F883108F081E00C94C5129091D90684
:1025E000937041F08093DA066093DB064093DC063B
:1025F0000C94BD120895E9EDF6E0438120E1421B01
:1026000008F440E08181628190E00C94EE12E9EDE3
:10261000F6E0438120E1420F08F44FEF81816281AF
:1026200090E00C94EE12E9EDF6E0628120E1621B8D
:1026300008F460E08181438190E00C94EE12E9EDB2
:10264000F6E0628120E1620F08F46FEF818143813F
:1026500090E00C94EE12E9EDF6E081814381628115
:102660008850990B0C94EE12E9EDF6E0818190E030
:102670004381628108960C94EE12E9EDF6E0248124
:1026800030E1230F08F42FEF24830C94BD12E9ED01
:10269000F6E0248130E1231B08F420E024830C942D
:1026A000BD12E9EDF6E085E28083809115019091FD
:1026B0001601A091170181839283A3838FE78483FE
:1026C0000C94BD1278941F921FB61F9211248F9301
:1026D0009F93AF93BF938091B0049091B104A09168
:1026E000B204B091B3040196A11DB11D8093B00452
:1026F0009093B104A093B204B093B304BF91AF918F
:102700009F918F911F901FBE1F9018952FB7F8941F
:102710008091B0049091B104A091B204B091B3043F
:102720002FBF08950E9486139C019091960480917A
:102730009704982B21F03093930420939204909166
:10274000980480919904982B21F030939004209361
:102750008F04E0918B04F0918C04309749F082E073
:10276000809394040480F581E02D84E994E0099439
:10277000089510924E0410924D040E94FC0686E0CB
:10278000E4E9F4E0DF011D928A95E9F710929104E3
:1027900010928E04109255040E94921390E080E0F3
:1027A0000E94CA0790E080E00C94B4076093DE06B4
:1027B0007093DF068093E0069093E1060C94B913C2
:1027C0000F931F936091DE067091DF068091E00603
:1027D0009091E1068B019C01067011272227332777
:1027E000063011052105310529F468601F910F910C
:1027F0000C94D613677FFACF0F931F9341E050E0FC
:1028000060E070E004C0440F551F661F771F8A9573
:10281000D2F7CB01BA0160957095809590950091A3
:10282000DE061091DF062091E0063091E10660237C
:102830007123822393231F910F910C94D6139091AF
:102840004C048095892380934C04282F277071F4C1
:10285000282F082E000C330B9217130639F085959C
:10286000859585950E94FC1310924C0408950F9352
:102870001F9341E050E060E070E004C0440F551F3A
:10288000661F771F8A95D2F78091DE069091DF064A
:10289000A091E006B091E1068A019B01082B192B5B
:1028A0002A2B3B2BC901B8011F910F910C94D61311
:1028B0006093510470935204809353049093540492
:1028C0000C94B91310924F0480911001E4E7F3E0E7
:1028D000882359F08091890487FF07C08EE1DF01CA
:1028E0001D928A95E9F70C94B91386E0F8CF1F93EF
:1028F000CF93DF93CDB7DEB7AA970FB6F894DEBFBC
:102900000FBECDBF8BED94E02091F100DC012D9343
:10291000CD01B4E0833E9B07B9F78091DC0483309E
:1029200009F471C0B8F4813009F448C0823009F468
:10293000B2C08091E80083FF88C28091DB0490914F
:10294000DC049A3008F081C2E92FF0E0E457F14D41
:102950000C94552D8A3009F48DC08B3009F470C069
:10296000893039F78091DB04813219F78091DF04D7
:102970009091E004009711F00297D9F68091E80059
:10298000877F8093E8008091E80082FF37C09091B4
:10299000F3008091F200029729F48091F1008B7F7F
:1029A000813021F48091F1008093B7048091E80098
:1029B0008B778093E8000E944804BBCF8091DB04B2
:1029C000813A09F0B6CF8091E800877F8093E800D4
:1029D0008091DF049091E004892B61F460E288EB40
:1029E00094E070E00E94FA048091E8008B77809375
:1029F000E8009FCF60E090E080E0F3CF8091E304B7
:102A00008111C1CF96CF8091DB04813A09F091CF3B
:102A10008091DF049091E004892B09F08ACF8091A6
:102A2000E800877F8093E8008091E80080FFFCCF7A
:102A3000809110018093F1008091E8008E77B9CFEA
:102A40008091DB04813209F074CF8091DF04909192
:102A5000E004892B09F06DCF8091E800877F809397
:102A6000E8000E9448048091DD04809310010E94D8
:102A700062145FCF8091DB04813209F05ACF8091DC
:102A8000E800877F8093E8000E9448048091DE047C
:102A90008093B6044ECF8091DB04813A09F049CF90
:102AA0008091E800877F8093E8008091E80080FFB4
:102AB000FCCF8091B604BECF803899F0823809F0FF
:102AC000C4C18091DF048F70873008F0BEC180934D
:102AD000E9008091EB0085FB882780F91092E900DE
:102AE00006C08091D8049091D90491118260909190
:102AF000E800977F9093E8008093F1001092F10036
:102B00008091E8008E779DC1882309F48BC18230C3
:102B100009F09BC18091DD0481118EC18091DF0499
:102B20008F702FEF280F263008F08FC18093E900B7
:102B30002091EB0020FF80C1933031F48091EB00B5
:102B400080628093EB0078C19091EB00906190934C
:102B5000EB0021E030E001C0220F8A95EAF72093D4
:102B6000EA001092EA008091EB008860EACF8111C0
:102B70006CC11091DD041F778091E3008078812B78
:102B80008093E3008091E800877F8093E8000E94B3
:102B900048048091E80080FFFCCF8091E3008068CA
:102BA0008093E30082E0111183E08093E3044DC140
:102BB0008058823008F049C12091DD043091DE0454
:102BC0002C3DE3E03E07A1F583E08A838AE2898316
:102BD0004FB7F894DE01139620E03EE051E2E32F78
:102BE000F0E050935700E49120FF03C0E295EF70AE
:102BF0003F5FEF708E2F90E0EA30C0F0C7968D9364
:102C00009D932F5F243159F74FBF8091E800877F54
:102C10008093E8006AE270E0CE0101960E94FA0417
:102C20008091E8008B778093E8000FC1C096E7CFD2
:102C30008091DF049091E004432F552743305105E4
:102C400009F44AC078F54130510509F47AC08BE5A2
:102C500090E0E6E2F6E04230510509F0F6C020913E
:102C6000E800277F2093E8002091E1043091E204FE
:102C70008217930708F49C0140E02115310509F003
:102C800065C0411163C08091E80082FDC9CF809189
:102C9000E304882329F2853019F28091E80083FF4C
:102CA000F2CFBECF4132510509F43CC0423251054A
:102CB00009F0CBC08330910508F0C7C0FC01EE0FCE
:102CC000FF1FED59FD4F0190F081E02D805A9D4F7F
:102CD000DC018C9190E01AC0332721303105D1F00E
:102CE0002115310561F02230310509F0AEC0E3E96C
:102CF000F6E0E4918E2F90E0E3E9F6E007C0E5EB23
:102D0000F6E0E4918E2F90E0E5EBF6E0009709F411
:102D10009CC0A5CFE5EAF6E0E4918E2F90E0E5EACD
:102D2000F6E0F4CF8330910508F08FC0880F991F2B
:102D3000FC01E759FD4F0190F081E02D89E090E022
:102D40008ECF82E190E0E1E8F6E089CF8091E30464
:102D5000882309F465CF853009F462CF8091E800BB
:102D600083FD5ECF8091E80082FD8DCF8091E800E9
:102D700080FF83CF9091F3008091F20021153105FF
:102D800019F08830910550F041E0089709F040E0D3
:102D90008091E8008E778093E8006FCF4491409354
:102DA000F1003196215031090196E8CF803809F0C1
:102DB0004CC08091E800877F8093E8008091DA041E
:102DC0008093F1009DCE811140C01091DD0412303E
:102DD000E0F58091E800877F8093E8001093DA04A3
:102DE0000E944804112311F084E005C08091E300A3
:102DF00087FDFACF81E08093E30442E061EC81E05B
:102E00000E94670442E261EC84E00E94670442E2AF
:102E100061EC82E00E94670442E260EC83E00E9481
:102E2000670413C08091DD04813079F481E0933030
:102E300009F080E08093D9041092E9008091E800C5
:102E4000877F8093E8000E9448048091E80083FF18
:102E50000AC08091E800877F8093E8008091EB00B2
:102E600080628093EB00AA960FB6F894DEBF0FBE87
:102E7000CDBFDF91CF911F9108951F920F920FB692
:102E80000F9211242F933F934F935F936F937F93F0
:102E90008F939F93AF93BF93CF93DF93EF93FF9362
:102EA000D091E900DF708091EC00C82FC17080FDE7
:102EB000C0E81092E9008091F000877F8093F000D5
:102EC00078940E9477141092E9008091F000886055
:102ED0008093F000CD2BCF70C093E900FF91EF916C
:102EE000DF91CF91BF91AF919F918F917F916F9122
:102EF0005F914F913F912F910F900FBE0F901F90B8
:102F000018951F920F920FB60F9211242F933F9393
:102F10004F935F936F937F938F939F93AF93BF93E1
:102F2000EF93FF938091E10082FF09C08091E2005E
:102F300082FF05C08091E1008B7F8093E10080914A
:102F4000DA0080FF24C08091D80080FF20C08091EB
:102F5000DA008E7F8093DA008091D90080FFA1C0D3
:102F600080E189BD82E189BD09B400FEFDCF81E029
:102F70008093E3048091B404811109C00E94A603E8
:102F80000E9499048091E20084608093E200809125
:102F9000E10080FF17C08091E20080FF13C08091A4
:102FA000E2008E7F8093E2008091E2008061809356
:102FB000E2008091D80080628093D80019BC85E03F
:102FC0008093E3048091E10084FF2FC08091E200B0
:102FD00084FF2BC080E189BD82E189BD89B5982F2E
:102FE000917080FFFBCF8091D8008F7D8093D800B7
:102FF0008091E1008F7E8093E1008091E2008F7EDE
:103000008093E2008091E20081608093E2008091F1
:10301000DA04882309F44BC084E08093E3040E941F
:1030200062140E94E0071092B5048091E10083FFD2
:1030300027C08091E20083FF23C08091E100877F59
:103040008093E10082E08093E3041092DA0480919F
:10305000E1008E7F8093E1008091E2008E7F80937B
:10306000E2008091E20080618093E20042E060E053
:1030700080E00E9467048091F00088608093F000F7
:10308000FF91EF91BF91AF919F918F917F916F9140
:103090005F914F913F912F910F900FBE0F901F9016
:1030A000189519BC1092E3041092B40470CF80916B
:1030B000E30087FD93E09093E304B1CF8823B1F15F
:1030C0009CEF980F913A38F4682F82E793E00E94C2
:1030D00097060C94FC0690E2980F983088F487705D
:1030E00021E030E0A90102C0440F551F8A95E2F7A4
:1030F000CA01809590914F04892380934F04E9CFB2
:103100009BE5980F933020F490E080E00C94CA0780
:1031100098E5980F973120F490E080E00C94B40784
:10312000803F20F00E945B050C9492130895CF938A
:10313000C82F882309F46EC08CEF8C0F813AB8F544
:1031400080911001882311F18091890487FF1EC0AE
:10315000EC2FE695E695E695F0E0EE58FC4F82817F
:1031600090E04C2F477021E030E002C0220F331F67
:103170004A95E2F782239323892B89F06C2F82E70B
:1031800093E00E9497060E94FC0609C0E4E7F3E082
:103190008191C81799F383E0EA37F807C9F76C2FD4
:1031A00082E793E00E94C106CF910C94FC0680E276
:1031B0008C0F883068F4C77021E030E001C0220F26
:1031C000CA95EAF780914F04822B80934F04ECCF8D
:1031D000EBE5EC0FE33040F4F0E0E45EFD4F80817E
:1031E00090E0CF910C94CA07E8E5EC0FE73150F47A
:1031F000F0E0EE0FFF1FE15EFD4F80819181CF91E6
:103200000C94B407C03F30F08C2F0E942006CF9161
:103210000C949213CF910895CF93C82F0E949718C2
:10322000C93349F42FEF87EE93E02150804090405E
:10323000E1F700C000008C2FCF910C945E180F9323
:103240001F93CF93DF93C42FD22FFC018281882359
:10325000A1F04093E5030E94861390939A03809314
:103260009903C77081E001C0880FCA95EAF7DF9122
:10327000CF911F910F910C94AA071091E50314139D
:1032800035C08091990390919A030E948806883CEA
:10329000910560F5C0E2CD0F1D17B9F080E2810FF6
:1032A000883040F4177081E001C0880F1A95EAF762
:1032B0000E949F07C83048F481E09D2F977001C09D
:1032C000880F9A95EAF70E94AA07802F0E940C198E
:1032D000C83098F4D77081E001C0880FDA95EAF71A
:1032E000DF91CF911F910F910C949F07C77081E0E0
:1032F00001C0880FCA95EAF7F3CFDF91CF911F91F4
:103300000F9108954F925F926F927F928F929F924A
:10331000AF92BF92CF92DF92EF92FF920F931F93E3
:10332000CF93DF9300D000D00F92CDB7DEB77C01F2
:10333000DC0113968D919C911497892B39F08C9117
:1033400011969C9189238F3F09F002C70F900F902F
:103350000F900F900F90DF91CF911F910F91FF90E1
:10336000EF90DF90CF90BF90AF909F908F907F9025
:103370006F905F904F9008950E945810182F682FFB
:1033800089819A810E94690769817A81812F0E94CF
:10339000C10E8C01F7018281882389F0818120810F
:1033A000FEE08F9FC001112481599D4F820F911D16
:1033B000DC01AC90BFEFBB24B394AB1201C0B12CC5
:1033C00070905604CB2CD12CC601870D911D099706
:1033D0006CF188E090E04C018C189D08B601695AA8
:1033E0007B4FA40187E594E00E94BE2DB601615A8F
:1033F0007B4FA4018FE594E00E94BE2DA401440FF1
:10340000551FB601660F771F61597B4F8FE694E019
:103410000E94BE2DB60169597B4FA40187E694E056
:103420000E94BE2D8FEF870D809356048091560425
:1034300090E02A2D30E0D901AA0FBB1FBD016B54CB
:103440007D4F9D012A543D4F41E0480F9B1508F4E4
:1034500073C0809356048091D9068C7F843509F01F
:10346000B8C0F7017181208199249A94970EF1E0F8
:10347000F70F88248A94820EE1E0E20FA72EB12C88
:10348000821688F44EE04A9DC0014B9D900D112498
:1034900081569C4F880D911DDC014C9150E1450FE8
:1034A00008F44FEF4C93422F50E06EE06A9DC0014C
:1034B0006B9D900D112481569C4F5C01A40EB51E8E
:1034C000D5016C91B0E23B2F630F08F46FEFD5018B
:1034D0006C93EE3058F48E0F911DDC016C91B0E1CD
:1034E0003B2F630F08F46FEFDC016C93F53008F4A9
:1034F00038C0692D70E0821608F4A6C02EE0269F21
:10350000C001279F900D112481569C4FDC01A40F10
:10351000B51F2C9130E1230F08F42FEF2C93EE30E0
:1035200008F057C0E80FF92FF11D20813DE0230F6F
:1035300008F42FEF20834DC090E0FC01EA5AFB4FC6
:10354000DB015C915183D9015C915187A18A880F7D
:10355000991FFC01EA5AFB4F128E118E91E0842FC5
:1035600073CFCF2ED12C821690F46EE06C9DC001EB
:103570006D9D900D112481569C4F880D911DDC018D
:103580006C91FDE03F2F630F08F46FEF6C936EE0DA
:103590006C9DC0016D9D900D112481569C4F6C0156
:1035A000C40ED51ED6016C91F0E13F2F630F08F4D5
:1035B0006FEF6C93EE3050F48E0F911DDC016C9127
:1035C000FDE03F2F630F08F46FEF6C93971608F43C
:1035D00090CFF7019281992309F486C59801225171
:1035E0003F452031310508F0A8C58FEF93E00E94D8
:1035F000D72D025156E5852E52E0952E882309F4E9
:1036000042C080914C04877009F4A0CED701129675
:103610008C91882309F49ACE82E00F900F900F903E
:103620000F900F90DF91CF911F910F91FF90EF902E
:10363000DF90CF90BF90AF909F908F907F906F90D2
:103640005F904F900C941F142EE0269FC001279F7F
:10365000900D112481569C4FDC01A80DB11D2C91B9
:103660003DE0230F08F42FEF2C9348CF8114F4E0B2
:103670009F0639F2C4010E94D72D811101C001506B
:103680002FEF821A920A0111F1CF1C821B8266244D
:1036900063944AE0542E84010F5F1F4FC4010E94BF
:1036A000D72D89831A82882309F4ABCF9FEF980F17
:1036B000933020F58A83698232E0830E911CC80121
:1036C0000E94D72D8B83882309F49BCF8E010F5F37
:1036D0001F4FD8012C912223F1F2213009F046C06E
:1036E00011969C91119712968C91913049F40E5F2E
:1036F0001F4F0E940C190F5F1F4FEBCF4801E6CF01
:10370000923029F40E5F1F4F0E949718F4CF933028
:1037100029F40E5F1F4F0E945E18EDCF943019F010
:103720000F5F1F4FE8CF0E5F1F4F30E020E0B80162
:103730006F5F7F4FF80141818053990B8A3091056B
:1037400050F021503109B8F28FE99FE00197F1F76D
:1037500000C00000F6CF529EF001539EF00D1124E0
:103760009C012E0F3F1F842F8B01E1CFE22FF0E051
:10377000EA55FA4F7490822F86958695869590E04B
:10378000FC01EA56FA4FA4902770B12C022E02C019
:10379000B594A7940A94E2F7A1E0AA22BB24FC0105
:1037A000EA57FA4FC490D12C02C0D594C7942A95F9
:1037B000E2F7B1E0CB22DD24A114B10419F081EECF
:1037C0000E949718C114D10419F086EE0E94971830
:1037D000872D0E940C19CD2819F086EE0E945E18E4
:1037E000AB2809F488CF81EE96CF81E00E94371490
:1037F00003C081E00E94FC130E94E01302CF82E02C
:10380000F9CF063FACE51A0709F465C008F45DC0BE
:10381000073FECE51E0709F464C0992309F4ABC423
:103820001092E5030230FCE51F0708F43FC10631A2
:103830002CE5120738F098012B5F3C452930310503
:1038400008F034C10E948D0E90938A0480938904FD
:1038500000313CE5130709F4F8C008F086C00830D1
:103860009CE5190709F4E7C008F055C00430BCE531
:103870001B0709F4D4C008F040C00230FCE51F0764
:1038800009F4C7C080918904826003301C4509F4A3
:10389000C3C06091890410918A0484E090E00E9482
:1038A000F52D612F81E290E00E94F52D0E946214B7
:1038B000A8CE07E225EE45EE69ED7CE53AC406E2C6
:1038C00021EE40EE64EF7CE534C407E225EE44EEE1
:1038D00065EF7CE52EC406E221EE42EE66EF7CE564
:1038E00028C407E225EE46EE67EF7CE522C408E235
:1038F00021E045EE6AED7CE51CC48091890480617D
:1039000006303CE5130709F487C008F48CC08091A9
:103910008904806281C0809189048D7F0C309CE590
:10392000190709F479C070F4809189048C600A3019
:10393000BCE51B0709F470C008F481C080918904BC
:103940008E7F6AC080918904877F0E30FCE51F0757
:1039500009F462C0809189048B7F0F301C4508F404
:103960005BC0809189048F7E57C00C3F3CE51307F4
:1039700009F45DC030F503319CE5190709F46DC009
:1039800078F40131BCE51B0709F463C002311C4522
:1039900009F07FCF0E946214809189048F773CC028
:1039A0000531FCE51F0709F460C008F474C080917C
:1039B0008A0481600B3F1C4509F06BCF80938A0419
:1039C00068CF01158DE5180709F44BC088F4809184
:1039D0008A048D7F0E3FACE51A0781F380918A043B
:1039E0008E7F0F3F1C4550F380918A048360E6CFA1
:1039F0000230EDE51E0709F457C008F442C060E04C
:103A000003301D4509F045CF8EE090E00E94F52D72
:103A100040CF809189048160809389043ACF80915E
:103A200089048460F9CF809189048860F5CF809102
:103A30008A048260C3CF809189048064EDCF0E94A4
:103A40006214809189048068E7CF809189048F7D1A
:103A5000E3CF809189048F7BDFCF80918904837FBE
:103A6000DBCF80918A048C7FA9CF8091890482FB6F
:103A7000992790F921E0922790FB82F990FB83F936
:103A8000CBCF80918A04982F909591708E7F892B4F
:103A900090FB81F993CF0E94621490918904892F41
:103AA00097FB87F98058B8CF61E0AECF80914F0483
:103AB00006313CE5130709F06CC38A7A91E009F4FA
:103AC00090E09093E60369E2811165E382E793E079
:103AD0000E94C1060E94FC0694CD8091D90691E017
:103AE00089278093D906109211010E94BD1289CDB9
:103AF0004BED52E164EE72E10E94EC0782CD44EEA0
:103B000052E16BED72E1F8CF4BE253E164E373E114
:103B1000F3CF44E353E16BE273E1EECF43E153E1D2
:103B20006FE173E1E9CF4FE153E163E173E1E4CF8A
:103B30004BEF52E167E073E1DFCF47E053E16BEF1A
:103B400072E1DACF47E453E16DE373E1D5CF4DE3A2
:103B500053E167E473E1D0CF81E00E94C51251CDFB
:103B600084E0FBCF89E0F9CF8EE0F7CF01158CE53B
:103B7000180709F44AC00F3D1C4509F453C0F7016A
:103B800000811181992309F450C0C8010E94581086
:103B9000D82E682FC8010E946907B8018D2D0E9498
:103BA000CE0E8C01882ED7011596AC901597A29455
:103BB0003FE0A3221296DC90D11010924E04809127
:103BC0004C04877099F0DD2089F0812F807F80344C
:103BD00021F080E2800F883048F082E00E941F14BC
:103BE00080914C048770CC24C3948111C12CB12ED8
:103BF000B2942FE0B222BBE0BB1508F450C0EB2D0D
:103C0000F0E0EA56F14D0C94552D0E946214BFEF7E
:103C1000E4E3FCE0B150E040F040E1F700C0000018
:103C20000E94690E0E944511ECCCC8010E94410718
:103C3000D82EB3CFE12FEF70AE2E107F19F0A294E3
:103C400090EFA922DD20C9F0AA2069F080E2800F60
:103C5000883010F081100BC080914F04A82AA092E8
:103C60004F040E94FC06802F0E94971818C0809174
:103C70004E04A82AA0924E04F4CF802F0E945E1812
:103C8000AA2069F0A094005E083010F081103BC0BB
:103C900080914F04A822A0924F040E94FC06AB2DF5
:103CA000A850BB0B149710F40E94E007CC2009F435
:103CB0004DCB80914C0480FD49CBF7011282859554
:103CC000859585950E943714C7010E9482198091BD
:103CD0004C048595859585950F900F900F900F90CA
:103CE0000F90DF91CF911F910F91FF90EF90DF9098
:103CF000CF90BF90AF909F908F907F906F905F908C
:103D00004F900C94FC1380914E04A822A0924E0474
:103D1000C4CFF12FFF709F2E107F103219F09294B4
:103D200080EF9822882071F021E0821661F1DD2079
:103D3000B9F1AA2071F1F701858180FF94CF8F70CE
:103D4000858327C0DD2091F090915004892D892B27
:103D5000A11003C00E94AA07A2CF31E0A312FACF9C
:103D6000891709F49CCF8093500499CFA11006C005
:103D70000E94F606892D0E949F0791CF81E0A81628
:103D800009F48DCFF5CFDD2031F095E09A1508F4D8
:103D900086CF892DDFCFA4E0AA1508F480CFEACF23
:103DA000AA2041F3F9E38F1209C02FEF37EE83E029
:103DB000215030408040E1F700C00000802F0E9479
:103DC0005E186DCF812F86958695837061F0813066
:103DD00009F065CFC8019370D11002C090E080E077
:103DE0000E94B4075CCFC8019370D11002C090E06C
:103DF00080E00E94CA0753CF802FDD2029F00E9467
:103E000020060E9492134BCF0E945B05FACF812FB0
:103E1000837009F066C0D11042CF802F82958695BD
:103E20008770880F880F602F6F70462E512C712C71
:103E3000612C082E04C0440C551C661C771C0A9487
:103E4000D2F740E050E0BA0104FF0FC04FE050E06D
:103E500060E070E004C0440F551F661F771F8A950D
:103E6000D2F74095509560957095812F86958695EF
:103E70008370823019F1D8F40091510410915204EA
:103E80002091530430915404813069F0442955291C
:103E900066297729CB01BA016023712382239323FA
:103EA0000E945814FCCE402A512A622A732ACB0160
:103EB000BA016429752986299729F2CF4429552901
:103EC00066297729009151041091520420915304DE
:103ED00030915404CB01BA016027712782279327C0
:103EE000DFCF8695DD2011F0812F8170882309F4C2
:103EF000D6CE802F829586958770880F880F602F89
:103F00006F70462E512C712C612C082E04C0440C6D
:103F1000551C661C771C0A94D2F740E050E0BA01A9
:103F200004FF0FC04FE050E060E070E004C0440FB9
:103F3000551F661F771F8A95D2F74095509560955B
:103F40007095812F869586958370823019F1D8F40B
:103F50000091DE061091DF062091E0063091E10627
:103F6000813069F04429552966297729CB01BA01A6
:103F700060237123822393230E94D61390CE402A7C
:103F8000512A622A732ACB01BA016429752986292C
:103F90009729F2CF44295529662977290091DE0611
:103FA0001091DF062091E0063091E106CB01BA01C5
:103FB0006027712782279327DFCF1F70DD2029F02C
:103FC000812F0E943714802FC5CE802F0E949F071B
:103FD000812F0E94FC1363CE802F92EF891609F483
:103FE00050C0981578F0A0EF8A1619F1B1EF8B1632
:103FF00009F43FC0DD2009F467C0A11034CE812F41
:104000008F713CC0E3EF8E1609F440C0F4EF8F12BD
:10401000F1CFDD2009F44DC01F71812F0E943714AC
:10402000A8E01A9FC0011124836080934C04812F63
:1040300025C0DD20C9F024E02A1508F430CE1F7118
:1040400061E070E080E090E004C0660F771F881F99
:10405000991F1A95D2F70091DE061091DF06209184
:10406000E0063091E106A4CF35E03A1508F417CE0A
:10407000E6CF812F8F71DD2009F4ABCF0E9437147A
:104080000ECE812F8F71DD20C9F3A3CF60E070E0E9
:10409000CB01DD2009F470CF1F7161E070E080E09A
:1040A00090E004C0660F771F881F991F1A95D2F7FA
:1040B00063CF81E00E941F14B1E0BA1508F0EFCD84
:1040C00082E00E941F14EBCDAA2059F0893309F039
:1040D00075CEEFEFF7EE23E0E150F0402040E1F73E
:1040E0006BCE812F8F7175CF0031FFE51F0709F46B
:1040F00080CB01312FE5120709F481CB043FECE5B9
:104100001E0709F4DCCB08F07CCB093D2CE5120737
:1041100009F4CFCB0A3D3CE5130709F4E8CB083D91
:104120008CE5180709F079CB06E221EE41EE68ED47
:104130007CE5C7010E941F1964CA00313FE51307DF
:1041400009F453CB01318FE51807C1F682E04ECB5D
:1041500085E0F701DE01119601900D928A95E1F755
:10416000D70112962C9189819A81211105C90E944B
:104170004107182F09C906311C4509F000CD80916F
:10418000E60369E2811165E382E793E00E94970606
:10419000A1CC8272F801E35CFC45E431F10508F042
:1041A000E5CCEE55F14D0C94552D1F93CF93DF9335
:1041B0008091EC03807FA9F48091E903882389F042
:1041C00080911E04D091ED036091E7037091E803A4
:1041D000A091EA03B091EB03C62FC72316E0D813D2
:1041E00004C0DF91CF911F91089590E0109711F0D6
:1041F000CF3F19F401968770F2CF189F9001199F55
:10420000300D1124F901E251FC4F41814713F2CFE7
:1042100040814613EFCF42814111ECCF438154815D
:104220004A1B5B0B483C510528F78091EC038F70CB
:1042300080618093EC03F901ED50FC4F80818F7019
:104240008061808387EE93E00E948219DF91CF9195
:104250001F910C949507AF92BF92CF92DF92EF928D
:10426000FF920F931F93CF93DF93CDB7DEB7619784
:104270000FB6F894DEBF0FBECDBF8C0185E0F8010C
:10428000DE011D9601900D928A95E1F7F80180817B
:104290009181E28027EEA22E23E0B22E6091EA0304
:1042A0007091EB036115710509F43EC13091E7038C
:1042B0004091E803232F24232F3F09F435C1C38005
:1042C000D480F090E903F601E61BF70BFF2009F418
:1042D000FBC02091EC03522F507FE83CF10508F021
:1042E000BBC0511178C0FE2C491321C038131FC028
:1042F000E1101DC02F7020612093EC03C5010E94C6
:1043000082198091EC03F80185838F2D61960FB699
:10431000F894DEBF0FBECDBFDF91CF911F910F91FB
:10432000FF90EF90DF90CF90BF90AF900895CD2891
:1043300029F0282F29232F3F09F014C120E0F22F64
:10434000F170DF2E20FF3DC020911E044091ED034F
:1043500056E0241315C08D879E878D859E850E940B
:104360009A10292F22952F702230F8F0243020F552
:104370009F70F9F0F8019581907FD9F4D12C1FC07E
:1043800030E0529FF001539FF00D1124E251FC4F99
:104390006181961306C06081861303C06281E612B4
:1043A00010C02F5F3F4F2770D4CF9F7011F088232C
:1043B00029F3805E883010F3C8010E948219FD2C19
:1043C000A4CFEE2009F4A1CF8091EC03816080930B
:1043D000EC03F12C9ACF491312C0381310C0E1102E
:1043E0000EC0F8012583C8010E94821986E0F801F9
:1043F000A7EEB3E001900D928A95E1F786CF8D8705
:104400009E878D859E850E94A410882309F1EE2049
:10441000F9F08091EC03803270F02091E703309145
:10442000E80338872F831986DB86CA868C87CE01FE
:1044300007960E94821986E0F801A7EEB3E001908A
:104440000D928A95E1F70E94D520FF24F3945DCF69
:10445000C8010E948219F9CF51110AC087EE93E07A
:104460000E94821986E0F50111928A95E9F7B1CF91
:1044700049130FC038130DC0E1100BC0F80125839C
:10448000C8010E94821986E0F50111928A95E9F728
:104490003CCF8D879E878D859E850E94A4108823A2
:1044A000B9F2EE20A9F28091EC03803220F2209143
:1044B000E7033091E8033A8329831B82DD82CC82B3
:1044C0008E83CE010196B5CFE83CF105E0F6FE2CD7
:1044D000EE2009F4BDCF491316C0381314C08091E3
:1044E000EC0380FD83CF982F907F09F47FCFF801F4
:1044F0008583903F09F477CF982F907F905F8F70DE
:10450000892B858370CF8D879E878D859E850E94A0
:10451000A410811190CF8091EC0381608093EC0313
:10452000C8010E948219F1CEEE2009F491CF8D8747
:104530009E878D859E850E94A410F82E882309F4FD
:1045400087CF86E0F801A7EEB3E001900D928A953F
:10455000E1F78091E7039091E8030E949A100E948E
:10456000D520D3CE21E02E25EACE1F93CF93DF9323
:10457000CDB7DEB767970FB6F894DEBF0FBECDBFDD
:104580004B8B5C8B6D8B7E8B8F8B1A8A198A85E0A7
:10459000FE017396DE011D9601900D928A95E1F75A
:1045A00086E0FE013D96DE01179601900D928A95F8
:1045B000E1F7CE0107960E942B21811112C086E0FF
:1045C000FE013796DE01119601900D928A95E1F772
:1045D0008A859B85892B29F08F81988589238F3F38
:1045E000B1F516E080911E049091ED0389131DC072
:1045F00067960FB6F894DEBF0FBECDBFDF91CF91A7
:104600001F91089596E0929FD001939FB00D1124C1
:10461000A251BC4FFE01319601900D929A95E1F79F
:104620008093ED030E949507DCCF819FC001112488
:1046300082519C4F0E942B218823D1F280911E042D
:1046400090E001968770992780931E04CBCF20912C
:10465000ED0330E0C90101968770992740911E044F
:104660004817190679F60E9462141092ED03109211
:104670001E0486E0E7EEF3E0DF011D928A95E9F77C
:10468000B0CF2F923F924F925F926F927F928F9214
:104690009F92AF92BF92CF92DF92EF92FF920F93D1
:1046A0001F93CF93DF9300D000D0CDB7DEB72DE4BA
:1046B00032E03B832A830FE714E0A2E5EA2EA2E072
:1046C000FA2E512CCC24C394D12CAA81BB818D917C
:1046D000BB83AA83F894E82FE295EF70F0E021A164
:1046E0008F70A60102C0440F551F8A95E2F7CA01D8
:1046F000922F982B91A392A18095892382A37894DD
:1047000050EA5A95F1F7E2E5F2E030E020E0B12C12
:10471000A12C4191A42FA295AF70B0E090968C91FE
:1047200090E04F7002C0959587954A95E2F780FD1D
:1047300067C0C601022E02C0880F991F0A94E2F7D3
:10474000A82AB92A2F5F3F4F2E30310511F7EA8191
:10475000FB81319780810E94DD0CD8018D919C9165
:104760001197A816B90609F44EC0AD92BC9281E02B
:10477000582A0E5F1F4FEA81FB81EE16FF0609F0F3
:10478000A4CF552009F441C081E0809394030E9496
:104790008613909393038093920380919203909158
:1047A00093030E9488060497A0F180917F04909162
:1047B00080049093A7048093A60480918104909133
:1047C00082049093A9048093A8048091830490911B
:1047D00084049093AB048093AA0480918504909103
:1047E00086049093AD048093AC04809187049091EB
:1047F00088049093AF048093AE041092940309C090
:1048000090E080E09DCF80E0B3CF80919403811150
:10481000C4CF8091950390919603A0919703B09196
:1048200098032FB7F8948090B0049090B104A090B2
:10483000B204B090B3042FBF75016401C81AD90A3D
:10484000EA0AFB0A2FB7F8944091B0045091B104E2
:104850006091B2047091B3042FBF409395035093BD
:104860009603609397037093980310915604E6E5BE
:10487000F4E019831A820197AF4FBF4F8819990945
:10488000AA09BB092A81121336C039813093560414
:104890004090B504712C411009C08091D906982F21
:1048A0009370792E19F0782E769476948091110178
:1048B000813009F44EC08823A9F1823009F42CC359
:1048C000833009F434C3852D0F900F900F900F9013
:1048D000DF91CF911F910F91FF90EF90DF90CF90DC
:1048E000BF90AF909F908F907F906F905F904F9010
:1048F0003F902F900895218D328D4901B12CA12C2C
:1049000088159905AA05BB0540F429812150298302
:104910003A813F5F3A833296B5CF2C0D3D1D328FE1
:10492000218FF6CF109212014093AC065093AD0642
:104930006093AE067093AF0689E2E6E5F4E0A0EB83
:10494000B6E001900D928A95E1F781E08093110124
:10495000BACF8091050178121AC02091D906237030
:104960008091040190E0A1E0A9832817190609F4B9
:104970001982E981E170EC83E0931401F7E1F71506
:1049800060F0E72DF0E0EA54F14D0C94552DB1E0C4
:10499000B983EFCF2C81211102C01C8273C040E08B
:1049A00060E080E00E943708F8CF309112018DE07E
:1049B000389F802D11248983182F135F012F103405
:1049C00008F00FE36091DA067091DB068091DC0657
:1049D0000E94530AF62EE72ED82E5981452F50E01B
:1049E0005B834A839A81901718F0A1E0AC8347C09B
:1049F000EA81FB81ED5CFC4F80819091130189235A
:104A000039F02D2D4F2D6E2D8A819B810E94390802
:104A10008A819B8101969B838A83E4CFB0911201A6
:104A20008DE0B89F802D11248983182F135F012FEB
:104A3000103408F00FE3E090DB06F090DC06E09124
:104A4000DA06EA836E2F7E2D8F2D0E94530AD62E12
:104A5000C72EB82E6091DD06FA816F0F7E2D8F2D47
:104A60000E94530AF62EE72EA82E3981232F30E01C
:104A70003B832A835A81501780F181E08C831F3356
:104A800008F08BCF809112018F5F809312015C81BF
:104A900051110CC082E080931101809114018111A9
:104AA00005C0711003C083E08093110141100BCF4A
:104AB000E0918B04F0918C04309709F404CF0190BD
:104AC000F081E02D099581FFFECE2FEF4FEF6FEFC4
:104AD00088E290E00E943908F6CEEA81FB81ED5C25
:104AE000FC4F908180911301892361F02A2D4F2D75
:104AF0006E2D90FD03C02B2D4D2D6C2D8A819B8139
:104B00000E9439084A815B814F5F5F4F5B834A8314
:104B1000B1CF909112018DE0989F802D112489834F
:104B2000182F135FF12E103410F0FFE3FF2EE090EA
:104B3000DB06D090DC062091DD0600E4029F012D0B
:104B40001124B981AB2FB0E0BB83AA83FA81FF1592
:104B500018F021E02C8393CFEA81FB81ED5CFC4FC0
:104B60008081909113018923E9F0EA81FB81EE0FA6
:104B7000FF1FEB54FD4F6081069FB0011124E5E05B
:104B800075956795EA95E1F78091DA06680F7E2DB5
:104B90008D2D0E94530A462F282F672F8A819B81D3
:104BA0000E943908EA81FB813196FB83EA83CECFEC
:104BB000309112018DE0389F802D11248983182FA8
:104BC000135F012F103408F00FE3F090DA064091E4
:104BD000DB064A83E090DC066091DD06669566950B
:104BE00066958091AC069091AD060E94490A0E949C
:104BF000D209805887FD8195880F582F2E2D529FFE
:104C0000512D1124852F6F2D7A810E94530AF62E83
:104C1000E72ED82E5981452F50E05B834A839A8135
:104C2000901708F0E2CEEA81FB81ED5CFC4F8081B9
:104C300090911301892339F02D2D4F2D6E2D8A81EE
:104C40009B810E9439088A819B8101969B838A837C
:104C5000E6CF85E199E00E94930C8C8313CF83EB20
:104C600099E00E94370CF9CF87E999E00E94BA0BCE
:104C7000F4CF83E199E0EFCF8AE099E0ECCF81E0D7
:104C800099E0E9CF88EE98E0E6CF8AED98E0EECFA4
:104C900081E29AE0E6CF86E899E0E3CF82E799E007
:104CA000E5CF8DEA98E00E94580BD7CF8FE798E0C8
:104CB000FACF88E498E0F7CFBC81B1111EC06091B3
:104CC000DD0620E1620F08F46FEF8091AC06909151
:104CD000AD060E94490A6AE070E00E942D2D892BE2
:104CE00009F05BCE0E94AE2D6FE370E00E94412D73
:104CF000609113010E947712C5CEE09112018DE000
:104D0000E89F802D112489834DE0F42EF80E0F2D9D
:104D1000FFE3FF1508F40FE33981232F30E03B83D5
:104D20002A8310E08A819B81801791073CF091E0F3
:104D30009C83AEE3AF1508F0A5CE2FCE6091130192
:104D40008A819B810E9477124A815B814F5F5F4F0E
:104D50005B834A83E7CFBC81B1111EC06091DD0641
:104D600020E1620F08F46FEF8091AC069091AD06E0
:104D70000E94490A65E070E00E942D2D892B09F000
:104D80000CCE0E94AE2D6FE370E00E94412D609129
:104D900013010E94551276CEE09112018DE0E89F3A
:104DA000802D112489833DE0F32EF80E0F2DFFE3B3
:104DB000FF1508F40FE33981232F30E03B832A836A
:104DC00010E08A819B81801791070CF0B0CF609131
:104DD00013018A819B810E9455124A815B814F5F3A
:104DE0005F4F5B834A83EDCFB09112018DE0B89F96
:104DF000802D11248A83835F8983182F873408F0DC
:104E000016E4EC81EE2361F040E060E080E00E9477
:104E10003708EFE9F3E086E4DF011D928A95E9F7B0
:104E2000FA81EF2FF0E0FB83EA83E12EF12C85E09D
:104E3000882E912C9EE0392E2AEA222E2A813B814F
:104E40002E153F053CF031E03C834981463408F49F
:104E500019CEA3CD8A819B81B4010E94412D6B01A3
:104E60005C013A9CC0013B9C900D1124FC01E15671
:104E7000FC4FE60FF71F608081599D4FFC01E60F44
:104E8000F71F00810F3F51F110E0F801ED5CFC4F7E
:104E9000808190911301892309F1362D25E5321B7C
:104EA00008F430E07091DB06222D462D240F08F423
:104EB0002FEF4091DC06822F880F820F8E5F582FD4
:104EC000549F512D1124852F622D631B0E94530A7C
:104ED000462F282F672FC8010E943908262D31E060
:104EE000231B08F420E03A9CC0013B9C900D112448
:104EF00081569C4FC80ED91ED6012C93EA81FB81A6
:104F00003196FB83EA839ACF81E498E00E94E70A16
:104F1000A4CE8BE398E0FACF709205018091D90678
:104F20008370809304010E94C80D83E00FCD4091EF
:104F3000AC065091AD066091AE067091AF062FB7EA
:104F4000F8948091B0049091B104A091B204B09112
:104F5000B3042FBF841B950BA60BB70B4097A1057D
:104F6000B10508F4B0CC10921101ADCCCDB7DEB7CD
:104F7000AA970FB6F894DEBF0FBECDBF84B7877F68
:104F800084BF0FB6F894A8958091600088618093E3
:104F90006000109260000FBE80E890E00FB6F894B9
:104FA00080936100909361000FBE85B7806885BFD4
:104FB00085B7806885BF0E94A6030E9499048091EE
:104FC000E20084608093E20078948091E304882377
:104FD000A1F01091E9001F709091EC00892F817071
:104FE00090FD80E8182B1092E9008091E80083FD85
:104FF0000E9477141F701093E90082E084BD93E053
:1050000095BD9AEF97BD80936E0085EF0E94DD0CF1
:1050100084EF0E94DD0C81EF0E94DD0C83E30E948F
:10502000DD0C82E30E94DD0C02E512E0F8018191C3
:105030008F010E94DD0CF2E000361F07B9F71092D5
:10504000800410927F041092A7041092A60410927C
:105050008204109281041092A9041092A804109264
:105060008404109283041092AB041092AA0410924C
:105070008604109285041092AD041092AC04109234
:105080008804109287041092AF041092AE040E941C
:1050900041238FEB9DE50197F1F700C000000E94CE
:1050A00041238091A60480FF0BC080E00E942D1157
:1050B0006FEF7FEF90E080E00E94132E0E94690E58
:1050C00090E080E00E94DF2D8C3E9E4F11F00E9408
:1050D00045110E94AF111092B0068FEF9FEF909391
:1050E000CA068093C9069093CC068093CB06909312
:1050F000CE068093CD069093D0068093CF069093F2
:10510000D2068093D1069093D4068093D3069093D1
:10511000D6068093D5069093D8068093D706109232
:1051200056049093700480936F049093720480935C
:105130007104909374048093730490937604809325
:105140007504909378048093770490937A04809305
:10515000790490937C0480937B0490937E048093E5
:105160007D0490E080E00E94DF2D8C3E9E4F21F078
:105170000E9445110E94511345E050E06CE170E03F
:1051800089ED96E00E94C72D8091D9068C7F11F49D
:105190000E94511382E290E00E94D72D813209F0E3
:1051A0005DC383E290E00E94D72D833009F056C39F
:1051B00084E290E00E94D72D823209F04FC390E044
:1051C00080E00E94DF2D8C3E9E4F11F00E94451121
:1051D00082E090E00E94D72D80939B040E948D0E68
:1051E00090938A048093890483E090E00E94D72DF5
:1051F000682F70E090E080E00E94581486E091E013
:1052000090938C0480938B04EE24EA94FF24F3940F
:105210005AEA252E60E1762E7CE8372EECE14E2E00
:10522000F9E05F2EA2E16A2EB8E18B2E912C8091DD
:10523000E304853009F43FC10E944123E6EAF4E02B
:10524000ACE9B4E010E000E0702F819191912D91D4
:105250003D912817390709F47BC160E0CC24C39441
:10526000D12C28273927A9014C215D21452B09F490
:1052700069C169A37AA396012823392391E0232BDE
:1052800009F490E09BA30E9486138160782F9DA370
:105290008CA349A15AA16BA18DA10E94B522000F38
:1052A000111FF801E456FB4F80819181C826D92651
:1052B000D182C08286E0E4E9F4E0DE01119601903B
:1052C0000D928A95E1F7D0909604C09097041091C2
:1052D00098040091990410929604109297041092E9
:1052E0009804109299048D2D8C2909F448C080915E
:1052F0009204909193040E9488069C0190919104DD
:10530000992309F4C6C223333105C8F19F3F19F030
:105310009F5F90939104DD2059F00E9400069FEF5B
:105320001D140CF491E0899F802D11248093960424
:10533000CC2059F00E9400069FEF1C140CF491E061
:10534000899F802D112480939704309196043323F4
:10535000B1F020919704222391F045EB3403C00172
:105360001124992309F40AC19093960445EB240370
:1053700090011124332309F404C130939704812F41
:10538000802B09F448C080918F04909190040E9472
:1053900088069C0190918E04992309F475C22536E4
:1053A0003105C8F19F3F19F09F5F90938E04112340
:1053B00059F00E94DE059FEF11160CF491E0899FD1
:1053C000802D112480939804002359F00E94DE055B
:1053D0009FEF10160CF491E0899F802D112480938B
:1053E0009904309198043323B1F020919904222339
:1053F00091F045EB3403C0011124992309F4C4C092
:105400009093980445EB240390011124332309F46D
:10541000BEC0309399048091960490919704892B93
:1054200090919804892B90919904892B11F00E94F6
:10543000921386E0FE013196A4E9B4E001900D924A
:105440008A95E1F70E94E00790919A04891721F06C
:105450000E94E00780939A048091E304843009F06D
:10546000E6CE83E08093E9008091E80082FFDFCE02
:105470008091E80090E085FF0CC00E94C50330E2F7
:10548000C32ED12C8E010F5F1F4F882309F48CC0CF
:1054900091E08091E8008B778093E800992309F4EC
:1054A000C6CEE981E150E33108F0EAC0F0E0E25312
:1054B000F14D0C94552D40E060E080E00E943708EB
:1054C000F092B5048091E304843049F110928D0488
:1054D00080E40FB6F894A895809260000FBE809388
:1054E000600040E060E080E00E943708F092B50480
:1054F00083B7817F846083BF83B7816083BF7894E3
:10550000889583B78E7F83BF0FB6F894A895809156
:105510006000886180936000109260000FBE8091EF
:10552000D904882309F483CE0E944123E6EAF4E0FB
:1055300081919191892B09F07DC144E0E03BF40712
:10554000B9F775CE6F5FCC0CDD1C6E3009F08BCED9
:105550000F5F1F4F0530110509F076CEEEA2EFA2C6
:1055600018A60E9486138160782F9AA789A74EA15A
:105570005FA168A58AA50E94B5229CCEF0929604F0
:10558000F5CEF0929704FBCEF09298043BCFF092C8
:10559000990441CF8091F100F80181938F01F1E0EE
:1055A000CF1AD10809F474CF8091E80085FDF2CFBD
:1055B0008091E8008B778093E8000E94C5038823E0
:1055C00099F366CF1A825B82CE0101960E94200475
:1055D0002ECE8A81823009F44EC18330A9F0813009
:1055E00009F04EC02FB7F8946091B0047091B104E7
:1055F0008091B2049091B3042FBF0E945B2D6B8306
:105600007C838D839E83E0CF8091A6049091A70434
:105610009827892798279C838B838091A804909151
:10562000A9049827892798279E838D838091AA04AF
:105630009091AB0498278927982798878F8380912A
:10564000AC049091AD049827892798279A87898779
:105650008091AE049091AF049827892798279C8762
:105660008B87B2CF8A81823059F46B817C818D81A6
:105670009E810E945B2D85E290E00E94F52DA4CFD3
:10568000E982A2CF4C816B818A810E949B0E982770
:10569000892798279E838D8397CF0D811E811027A0
:1056A000012710278A81CB80C49C60011124839D2F
:1056B000C00CD11C11248C8190E0880F991FC80E5A
:1056C000D91E612FC60186960E94F52D602FC60156
:1056D0008796D3CF0E94C81077CF7A8275CFFA828F
:1056E0002B8272CF0A811B81102701271027CE0140
:1056F00001966C01AC80FC01EA0DF11D5F01C8014F
:105700008A5A9D4FAC14BD0409F45ECF0A3AF1E009
:105710001F0750F40E94D72DF60184830F5F1F4F9F
:10572000FFEFCF1ADF0AEBCFF6011482F7CF0A8121
:105730001B81102701271027CE0101965C01CC8028
:10574000C00ED12ED11CC8018A5A9D4FC016D10659
:1057500009F43ACF0A3AE1E01E0720F4F50164812A
:105760000E94F52DFFEFAF1ABF0A0F5F1F4FEBCF5F
:105770000E941D1129CF24E02A8326CF0A811B8194
:10578000102701271027CE0101966C01AC80FC0187
:10579000EA0DF11D5F01C8018696AC14BD0409F441
:1057A00013CF0033F2E01F0750F40E94D72DF6010B
:1057B00084830F5F1F4FFFEFCF1ADF0AECCFF60194
:1057C0001482F7CF0A811B81102701271027CE01F1
:1057D00001965C01CC80C00ED12ED11CC8018696EA
:1057E000C016D10609F4F0CE0033E2E01E0720F423
:1057F000F50164810E94F52DFFEFAF1ABF0A0F5F1C
:105800001F4FECCF80E00E942D116FEF7FEF90E0F3
:1058100080E00E94132ED8CECE0101960E94200473
:105820002FEF41EE84E0215040408040E1F700C07E
:10583000000044CC79BC69BC09B400FEFDCF809166
:10584000D8008F7D8093D8008091E00082608093A3
:10585000E0008091E00081FDFCCFE9CC60E085E2D2
:1058600090E00E94F52D0E94C8100E941D1181E059
:105870000E942D11A4CC85E290E00E94D72D1B82BE
:105880001C821D828E83A0CE2D32314008F08CCD3B
:10589000C2CD2D32314008F03BCD71CD1F921FB6E5
:1058A0001F9211248F939F93AF93BF9380918D0488
:1058B000811113C08091B0049091B104A091B20401
:1058C000B091B3044196A11DB11D8093B004909393
:1058D000B104A093B204B093B304BF91AF919F9170
:1058E0008F911F901FBE1F9018951092B9008CE0E9
:1058F0008093B8000895EF92FF920F931F93CF9378
:10590000DF93182FEB011092BC0084EA8093BC0057
:105910000E9486137C018091BC0087FF27C0809184
:10592000B900887F883029F08091B900887F803164
:10593000D9F51093BB0084E88093BC000E948613C5
:105940008C018091BC0087FF24C02091B900287F82
:1059500090E080E02831B1F081E090E0203411F453
:1059600090E080E09195819591090CC0CF3FDC07D4
:1059700091F20E9486138E199F098C179D0758F289
:105980008EEF9FEFDF91CF911F910F91FF90EF90DE
:105990000895CF3FDC07A9F20E948613801B910B6C
:1059A0008C179D0770F2ECCF8FEF9FEFEBCF0F932B
:1059B0001F93CF93DF93EB018093BB0084E8809328
:1059C000BC000E9486138C018091BC0087FF11C02F
:1059D0002091B900287F81E090E0283211F490E016
:1059E00080E0919581959109DF91CF911F910F9161
:1059F0000895CF3FDC0741F30E948613801B910B73
:105A00008C179D0708F38EEF9FEFEECFCF92DF92BA
:105A1000EF92FF920F931F93CF93DF936B018A0155
:105A20007901B9010E947B2CE6010C0D1D1DC017E8
:105A3000D10761F424E92093BC00DF91CF911F913D
:105A40000F91FF90EF90DF90CF90089597FDF2CFE8
:105A5000B70189910E94D72CEACFAA1BBB1B51E149
:105A600007C0AA1FBB1FA617B70710F0A61BB70BCE
:105A7000881F991F5A95A9F780959095BC01CD0173
:105A8000089597FB072E16F4009407D077FD09D0F0
:105A90000E942D2D07FC05D03EF4909581959F4FD7
:105AA0000895709561957F4F0895EE0FFF1F059043
:105AB000F491E02D0994692796276927782787278D
:105AC000782708958F929F92AF92BF92CF92DF92E4
:105AD000EF92FF92CF93DF93EC01688179818A8105
